{
  "_format": "hh-sol-artifact-1",
  "contractName": "UniswapV2Factory",
  "sourceName": "contracts/UniswapV2Factory.sol",
  "abi": [
    {
      "inputs": [
        {
          "internalType": "address",
          "name": "_feeToSetter",
          "type": "address"
        }
      ],
      "stateMutability": "nonpayable",
      "type": "constructor"
    },
    {
      "anonymous": false,
      "inputs": [
        {
          "indexed": true,
          "internalType": "address",
          "name": "owner",
          "type": "address"
        },
        {
          "indexed": true,
          "internalType": "address",
          "name": "spender",
          "type": "address"
        },
        {
          "indexed": false,
          "internalType": "uint256",
          "name": "value",
          "type": "uint256"
        }
      ],
      "name": "Approval",
      "type": "event"
    },
    {
      "anonymous": false,
      "inputs": [
        {
          "indexed": true,
          "internalType": "address",
          "name": "sender",
          "type": "address"
        },
        {
          "indexed": false,
          "internalType": "uint256",
          "name": "amount0",
          "type": "uint256"
        },
        {
          "indexed": false,
          "internalType": "uint256",
          "name": "amount1",
          "type": "uint256"
        },
        {
          "indexed": true,
          "internalType": "address",
          "name": "to",
          "type": "address"
        }
      ],
      "name": "Burn",
      "type": "event"
    },
    {
      "anonymous": false,
      "inputs": [
        {
          "indexed": true,
          "internalType": "address",
          "name": "sender",
          "type": "address"
        },
        {
          "indexed": false,
          "internalType": "uint256",
          "name": "amount0",
          "type": "uint256"
        },
        {
          "indexed": false,
          "internalType": "uint256",
          "name": "amount1",
          "type": "uint256"
        }
      ],
      "name": "Mint",
      "type": "event"
    },
    {
      "anonymous": false,
      "inputs": [
        {
          "indexed": true,
          "internalType": "address",
          "name": "token0",
          "type": "address"
        },
        {
          "indexed": true,
          "internalType": "address",
          "name": "token1",
          "type": "address"
        },
        {
          "indexed": false,
          "internalType": "address",
          "name": "pair",
          "type": "address"
        },
        {
          "indexed": false,
          "internalType": "uint256",
          "name": "",
          "type": "uint256"
        }
      ],
      "name": "PairCreated",
      "type": "event"
    },
    {
      "anonymous": false,
      "inputs": [
        {
          "indexed": true,
          "internalType": "address",
          "name": "sender",
          "type": "address"
        },
        {
          "indexed": false,
          "internalType": "uint256",
          "name": "amount0In",
          "type": "uint256"
        },
        {
          "indexed": false,
          "internalType": "uint256",
          "name": "amount1In",
          "type": "uint256"
        },
        {
          "indexed": false,
          "internalType": "uint256",
          "name": "amount0Out",
          "type": "uint256"
        },
        {
          "indexed": false,
          "internalType": "uint256",
          "name": "amount1Out",
          "type": "uint256"
        },
        {
          "indexed": true,
          "internalType": "address",
          "name": "to",
          "type": "address"
        }
      ],
      "name": "Swap",
      "type": "event"
    },
    {
      "anonymous": false,
      "inputs": [
        {
          "indexed": false,
          "internalType": "uint112",
          "name": "reserve0",
          "type": "uint112"
        },
        {
          "indexed": false,
          "internalType": "uint112",
          "name": "reserve1",
          "type": "uint112"
        }
      ],
      "name": "Sync",
      "type": "event"
    },
    {
      "anonymous": false,
      "inputs": [
        {
          "indexed": true,
          "internalType": "address",
          "name": "from",
          "type": "address"
        },
        {
          "indexed": true,
          "internalType": "address",
          "name": "to",
          "type": "address"
        },
        {
          "indexed": false,
          "internalType": "uint256",
          "name": "value",
          "type": "uint256"
        }
      ],
      "name": "Transfer",
      "type": "event"
    },
    {
      "inputs": [],
      "name": "DOMAIN_SEPARATOR",
      "outputs": [
        {
          "internalType": "bytes32",
          "name": "",
          "type": "bytes32"
        }
      ],
      "stateMutability": "view",
      "type": "function"
    },
    {
      "inputs": [],
      "name": "MINIMUM_LIQUIDITY",
      "outputs": [
        {
          "internalType": "uint256",
          "name": "",
          "type": "uint256"
        }
      ],
      "stateMutability": "view",
      "type": "function"
    },
    {
      "inputs": [],
      "name": "PERMIT_TYPEHASH",
      "outputs": [
        {
          "internalType": "bytes32",
          "name": "",
          "type": "bytes32"
        }
      ],
      "stateMutability": "view",
      "type": "function"
    },
    {
      "inputs": [
        {
          "internalType": "uint256",
          "name": "",
          "type": "uint256"
        }
      ],
      "name": "allPairs",
      "outputs": [
        {
          "internalType": "address",
          "name": "",
          "type": "address"
        }
      ],
      "stateMutability": "view",
      "type": "function"
    },
    {
      "inputs": [],
      "name": "allPairsLength",
      "outputs": [
        {
          "internalType": "uint256",
          "name": "",
          "type": "uint256"
        }
      ],
      "stateMutability": "view",
      "type": "function"
    },
    {
      "inputs": [
        {
          "internalType": "address",
          "name": "",
          "type": "address"
        },
        {
          "internalType": "address",
          "name": "",
          "type": "address"
        }
      ],
      "name": "allowance",
      "outputs": [
        {
          "internalType": "uint256",
          "name": "",
          "type": "uint256"
        }
      ],
      "stateMutability": "view",
      "type": "function"
    },
    {
      "inputs": [
        {
          "internalType": "address",
          "name": "spender",
          "type": "address"
        },
        {
          "internalType": "uint256",
          "name": "value",
          "type": "uint256"
        }
      ],
      "name": "approve",
      "outputs": [
        {
          "internalType": "bool",
          "name": "",
          "type": "bool"
        }
      ],
      "stateMutability": "nonpayable",
      "type": "function"
    },
    {
      "inputs": [
        {
          "internalType": "address",
          "name": "",
          "type": "address"
        }
      ],
      "name": "balanceOf",
      "outputs": [
        {
          "internalType": "uint256",
          "name": "",
          "type": "uint256"
        }
      ],
      "stateMutability": "view",
      "type": "function"
    },
    {
      "inputs": [
        {
          "internalType": "address",
          "name": "to",
          "type": "address"
        }
      ],
      "name": "burn",
      "outputs": [
        {
          "internalType": "uint256",
          "name": "amount0",
          "type": "uint256"
        },
        {
          "internalType": "uint256",
          "name": "amount1",
          "type": "uint256"
        }
      ],
      "stateMutability": "nonpayable",
      "type": "function"
    },
    {
      "inputs": [
        {
          "internalType": "address",
          "name": "tokenA",
          "type": "address"
        },
        {
          "internalType": "address",
          "name": "tokenB",
          "type": "address"
        }
      ],
      "name": "createPair",
      "outputs": [
        {
          "internalType": "address",
          "name": "pair",
          "type": "address"
        }
      ],
      "stateMutability": "nonpayable",
      "type": "function"
    },
    {
      "inputs": [],
      "name": "decimals",
      "outputs": [
        {
          "internalType": "uint8",
          "name": "",
          "type": "uint8"
        }
      ],
      "stateMutability": "view",
      "type": "function"
    },
    {
      "inputs": [],
      "name": "factory",
      "outputs": [
        {
          "internalType": "address",
          "name": "",
          "type": "address"
        }
      ],
      "stateMutability": "view",
      "type": "function"
    },
    {
      "inputs": [],
      "name": "feeTo",
      "outputs": [
        {
          "internalType": "address",
          "name": "",
          "type": "address"
        }
      ],
      "stateMutability": "view",
      "type": "function"
    },
    {
      "inputs": [],
      "name": "feeToSetter",
      "outputs": [
        {
          "internalType": "address",
          "name": "",
          "type": "address"
        }
      ],
      "stateMutability": "view",
      "type": "function"
    },
    {
      "inputs": [
        {
          "internalType": "address",
          "name": "",
          "type": "address"
        },
        {
          "internalType": "address",
          "name": "",
          "type": "address"
        }
      ],
      "name": "getPair",
      "outputs": [
        {
          "internalType": "address",
          "name": "",
          "type": "address"
        }
      ],
      "stateMutability": "view",
      "type": "function"
    },
    {
      "inputs": [],
      "name": "getReserves",
      "outputs": [
        {
          "internalType": "uint112",
          "name": "_reserve0",
          "type": "uint112"
        },
        {
          "internalType": "uint112",
          "name": "_reserve1",
          "type": "uint112"
        },
        {
          "internalType": "uint32",
          "name": "_blockTimestampLast",
          "type": "uint32"
        }
      ],
      "stateMutability": "view",
      "type": "function"
    },
    {
      "inputs": [
        {
          "internalType": "address",
          "name": "_token0",
          "type": "address"
        },
        {
          "internalType": "address",
          "name": "_token1",
          "type": "address"
        }
      ],
      "name": "initialize",
      "outputs": [],
      "stateMutability": "nonpayable",
      "type": "function"
    },
    {
      "inputs": [],
      "name": "kLast",
      "outputs": [
        {
          "internalType": "uint256",
          "name": "",
          "type": "uint256"
        }
      ],
      "stateMutability": "view",
      "type": "function"
    },
    {
      "inputs": [
        {
          "internalType": "address",
          "name": "to",
          "type": "address"
        }
      ],
      "name": "mint",
      "outputs": [
        {
          "internalType": "uint256",
          "name": "liquidity",
          "type": "uint256"
        }
      ],
      "stateMutability": "nonpayable",
      "type": "function"
    },
    {
      "inputs": [],
      "name": "name",
      "outputs": [
        {
          "internalType": "string",
          "name": "",
          "type": "string"
        }
      ],
      "stateMutability": "view",
      "type": "function"
    },
    {
      "inputs": [
        {
          "internalType": "address",
          "name": "",
          "type": "address"
        }
      ],
      "name": "nonces",
      "outputs": [
        {
          "internalType": "uint256",
          "name": "",
          "type": "uint256"
        }
      ],
      "stateMutability": "view",
      "type": "function"
    },
    {
      "inputs": [
        {
          "internalType": "address",
          "name": "owner",
          "type": "address"
        },
        {
          "internalType": "address",
          "name": "spender",
          "type": "address"
        },
        {
          "internalType": "uint256",
          "name": "value",
          "type": "uint256"
        },
        {
          "internalType": "uint256",
          "name": "deadline",
          "type": "uint256"
        },
        {
          "internalType": "uint8",
          "name": "v",
          "type": "uint8"
        },
        {
          "internalType": "bytes32",
          "name": "r",
          "type": "bytes32"
        },
        {
          "internalType": "bytes32",
          "name": "s",
          "type": "bytes32"
        }
      ],
      "name": "permit",
      "outputs": [],
      "stateMutability": "nonpayable",
      "type": "function"
    },
    {
      "inputs": [],
      "name": "price0CumulativeLast",
      "outputs": [
        {
          "internalType": "uint256",
          "name": "",
          "type": "uint256"
        }
      ],
      "stateMutability": "view",
      "type": "function"
    },
    {
      "inputs": [],
      "name": "price1CumulativeLast",
      "outputs": [
        {
          "internalType": "uint256",
          "name": "",
          "type": "uint256"
        }
      ],
      "stateMutability": "view",
      "type": "function"
    },
    {
      "inputs": [
        {
          "internalType": "address",
          "name": "_feeTo",
          "type": "address"
        }
      ],
      "name": "setFeeTo",
      "outputs": [],
      "stateMutability": "nonpayable",
      "type": "function"
    },
    {
      "inputs": [
        {
          "internalType": "address",
          "name": "_feeToSetter",
          "type": "address"
        }
      ],
      "name": "setFeeToSetter",
      "outputs": [],
      "stateMutability": "nonpayable",
      "type": "function"
    },
    {
      "inputs": [
        {
          "internalType": "address",
          "name": "to",
          "type": "address"
        }
      ],
      "name": "skim",
      "outputs": [],
      "stateMutability": "nonpayable",
      "type": "function"
    },
    {
      "inputs": [
        {
          "internalType": "uint256",
          "name": "amount0Out",
          "type": "uint256"
        },
        {
          "internalType": "uint256",
          "name": "amount1Out",
          "type": "uint256"
        },
        {
          "internalType": "address",
          "name": "to",
          "type": "address"
        },
        {
          "internalType": "bytes",
          "name": "data",
          "type": "bytes"
        }
      ],
      "name": "swap",
      "outputs": [],
      "stateMutability": "nonpayable",
      "type": "function"
    },
    {
      "inputs": [],
      "name": "symbol",
      "outputs": [
        {
          "internalType": "string",
          "name": "",
          "type": "string"
        }
      ],
      "stateMutability": "view",
      "type": "function"
    },
    {
      "inputs": [],
      "name": "sync",
      "outputs": [],
      "stateMutability": "nonpayable",
      "type": "function"
    },
    {
      "inputs": [],
      "name": "token0",
      "outputs": [
        {
          "internalType": "address",
          "name": "",
          "type": "address"
        }
      ],
      "stateMutability": "view",
      "type": "function"
    },
    {
      "inputs": [],
      "name": "token1",
      "outputs": [
        {
          "internalType": "address",
          "name": "",
          "type": "address"
        }
      ],
      "stateMutability": "view",
      "type": "function"
    },
    {
      "inputs": [],
      "name": "totalSupply",
      "outputs": [
        {
          "internalType": "uint256",
          "name": "",
          "type": "uint256"
        }
      ],
      "stateMutability": "view",
      "type": "function"
    },
    {
      "inputs": [
        {
          "internalType": "address",
          "name": "to",
          "type": "address"
        },
        {
          "internalType": "uint256",
          "name": "value",
          "type": "uint256"
        }
      ],
      "name": "transfer",
      "outputs": [
        {
          "internalType": "bool",
          "name": "",
          "type": "bool"
        }
      ],
      "stateMutability": "nonpayable",
      "type": "function"
    },
    {
      "inputs": [
        {
          "internalType": "address",
          "name": "from",
          "type": "address"
        },
        {
          "internalType": "address",
          "name": "to",
          "type": "address"
        },
        {
          "internalType": "uint256",
          "name": "value",
          "type": "uint256"
        }
      ],
      "name": "transferFrom",
      "outputs": [
        {
          "internalType": "bool",
          "name": "",
          "type": "bool"
        }
      ],
      "stateMutability": "nonpayable",
      "type": "function"
    }
  ],
  "bytecode": "0x60806040526001600c5534801561001557600080fd5b5060405161498238038061498283398101604081905261003491610138565b604080518082018252600a8152692ab734b9bbb0b8102b1960b11b6020918201528151808301835260018152603160f81b9082015281517f8b73c3c69bb8fe3d512ecc4cf759cc79239f7b179b0ffacaa9a75d522b39400f818301527fbfcc8ef98ffbf7b6c3fec7bf5185b566b9863e35a9d83acd49ad6824b5969738818401527fc89efdaa54c0f20c7adf612882df0950f5a951637e0307cdcb4c672f298b8bc660608201524660808201523060a0808301919091528351808303909101815260c0909101909252815191012060035560058054336001600160a01b031991821617909155600e80549091166001600160a01b0392909216919091179055610168565b60006020828403121561014a57600080fd5b81516001600160a01b038116811461016157600080fd5b9392505050565b61480b806101776000396000f3fe608060405234801561001057600080fd5b50600436106101d15760003560e01c80636a62784211610105578063bc25cf771161009d578063bc25cf7714610453578063c45a015514610466578063c9c6539614610479578063d21220a71461048c578063d505accf1461049f578063dd62ed3e146104b2578063e6a43905146104dd578063f46901ed14610511578063fff6cae91461052457600080fd5b80636a6278421461037b57806370a082311461038e5780637464fc3d146103ae5780637ecebe00146103b757806389afcb44146103d757806395d89b41146103ff578063a2e74af614610424578063a9059cbb14610437578063ba9a7a561461044a57600080fd5b80631e3dd18b116101785780631e3dd18b146102de57806323b872dd146102f157806330adf81f14610304578063313ce5671461032b5780633644e51514610345578063485cc9551461034e578063574f2ba3146103615780635909c0d5146103695780635a3d54931461037257600080fd5b8063017e7e58146101d6578063022c0d9f146101ff57806306fdde03146102145780630902f1ac1461024a578063094b74151461027e578063095ea7b3146102915780630dfe1681146102b457806318160ddd146102c7575b600080fd5b600d546101e9906001600160a01b031681565b6040516101f691906120dd565b60405180910390f35b61021261020d366004612109565b61052c565b005b61023d6040518060400160405280600a8152602001692ab734b9bbb0b8102b1960b11b81525081565b6040516101f691906121c5565b610252610a3e565b604080516001600160701b03948516815293909216602084015263ffffffff16908201526060016101f6565b600e546101e9906001600160a01b031681565b6102a461029f3660046121f8565b610a68565b60405190151581526020016101f6565b6006546101e9906001600160a01b031681565b6102d060005481565b6040519081526020016101f6565b6101e96102ec366004612224565b610a7f565b6102a46102ff36600461223d565b610aa9565b6102d07f6e71edae12b1b97f4d1f60370fef10105fa2faae0126114a169c64845d6126c981565b610333601281565b60405160ff90911681526020016101f6565b6102d060035481565b61021261035c36600461227e565b610b3e565b6010546102d0565b6102d060095481565b6102d0600a5481565b6102d06103893660046122b7565b610b96565b6102d061039c3660046122b7565b60016020526000908152604090205481565b6102d0600b5481565b6102d06103c53660046122b7565b60046020526000908152604090205481565b6103ea6103e53660046122b7565b610e5c565b604080519283526020830191909152016101f6565b61023d604051806040016040528060068152602001652aa72496ab1960d11b81525081565b6102126104323660046122b7565b6111c1565b6102a46104453660046121f8565b61120d565b6102d06103e881565b6102126104613660046122b7565b61121a565b6005546101e9906001600160a01b031681565b6101e961048736600461227e565b611331565b6007546101e9906001600160a01b031681565b6102126104ad3660046122d4565b611629565b6102d06104c036600461227e565b600260209081526000928352604080842090915290825290205481565b6101e96104eb36600461227e565b600f6020908152600092835260408084209091529082529020546001600160a01b031681565b61021261051f3660046122b7565b61183d565b610212611889565b600c546001146105575760405162461bcd60e51b815260040161054e9061234b565b60405180910390fd5b6000600c558415158061056a5750600084115b6105c45760405162461bcd60e51b815260206004820152602560248201527f556e697377617056323a20494e53554646494349454e545f4f55545055545f416044820152641353d5539560da1b606482015260840161054e565b6000806105cf610a3e565b5091509150816001600160701b0316871080156105f45750806001600160701b031686105b6106385760405162461bcd60e51b815260206004820152602160248201526000805160206147968339815191526044820152605960f81b606482015260840161054e565b60065460075460009182916001600160a01b039182169190811690891682148015906106765750806001600160a01b0316896001600160a01b031614155b6106ba5760405162461bcd60e51b8152602060048201526015602482015274556e697377617056323a20494e56414c49445f544f60581b604482015260640161054e565b8a156106cb576106cb828a8d6119b7565b89156106dc576106dc818a8c6119b7565b8615610749576040516304347a1760e21b81526001600160a01b038a16906310d1e85c906107169033908f908f908e908e90600401612376565b600060405180830381600087803b15801561073057600080fd5b505af1158015610744573d6000803e3d6000fd5b505050505b6040516370a0823160e01b81526001600160a01b038316906370a08231906107759030906004016120dd565b602060405180830381865afa158015610792573d6000803e3d6000fd5b505050506040513d601f19601f820116820180604052508101906107b691906123c2565b6040516370a0823160e01b81529094506001600160a01b038216906370a08231906107e59030906004016120dd565b602060405180830381865afa158015610802573d6000803e3d6000fd5b505050506040513d601f19601f8201168201806040525081019061082691906123c2565b92505050600089856001600160701b031661084191906123f1565b831161084e57600061086b565b6108618a6001600160701b0387166123f1565b61086b90846123f1565b905060006108828a6001600160701b0387166123f1565b831161088f5760006108ac565b6108a28a6001600160701b0387166123f1565b6108ac90846123f1565b905060008211806108bd5750600081115b6109155760405162461bcd60e51b8152602060048201526024808201527f556e697377617056323a20494e53554646494349454e545f494e5055545f414d60448201526313d5539560e21b606482015260840161054e565b6000610922836003612404565b61092e866103e8612404565b61093891906123f1565b90506000610947836003612404565b610953866103e8612404565b61095d91906123f1565b90506109756001600160701b03808916908a16612404565b61098290620f4240612404565b61098c8284612404565b10156109c95760405162461bcd60e51b815260206004820152600c60248201526b556e697377617056323a204b60a01b604482015260640161054e565b50506109d784848888611afe565b60408051838152602081018390529081018c9052606081018b90526001600160a01b038a169033907fd78ad95fa46c994b6551d0da85fc275fe613ce37657fb8d5e3d130840159d8229060800160405180910390a350506001600c55505050505050505050565b6008546001600160701b0380821692600160701b830490911691600160e01b900463ffffffff1690565b6000610a75338484611cea565b5060015b92915050565b60108181548110610a8f57600080fd5b6000918252602090912001546001600160a01b0316905081565b6001600160a01b038316600090815260026020908152604080832033845290915281205460001914610b29576001600160a01b0384166000908152600260209081526040808320338452909152902054610b049083906123f1565b6001600160a01b03851660009081526002602090815260408083203384529091529020555b610b34848484611d4c565b5060019392505050565b6005546001600160a01b03163314610b685760405162461bcd60e51b815260040161054e9061241b565b600680546001600160a01b039384166001600160a01b03199182161790915560078054929093169116179055565b6000600c54600114610bba5760405162461bcd60e51b815260040161054e9061234b565b6000600c81905580610bca610a3e565b506006546040516370a0823160e01b81529294509092506000916001600160a01b03909116906370a0823190610c049030906004016120dd565b602060405180830381865afa158015610c21573d6000803e3d6000fd5b505050506040513d601f19601f82011682018060405250810190610c4591906123c2565b6007546040516370a0823160e01b81529192506000916001600160a01b03909116906370a0823190610c7b9030906004016120dd565b602060405180830381865afa158015610c98573d6000803e3d6000fd5b505050506040513d601f19601f82011682018060405250810190610cbc91906123c2565b90506000610cd36001600160701b038616846123f1565b90506000610cea6001600160701b038616846123f1565b90506000610cf88787611de2565b60008054919250819003610d39576103e8610d1b610d168587612404565b611f21565b610d2591906123f1565b9850610d3460006103e8611f91565b610d80565b610d7d6001600160701b038916610d508387612404565b610d5a919061245f565b6001600160701b038916610d6e8487612404565b610d78919061245f565b612010565b98505b60008911610dcf5760405162461bcd60e51b815260206004820152602860248201526000805160206147968339815191526044820152671657d3525395115160c21b606482015260840161054e565b610dd98a8a611f91565b610de586868a8a611afe565b8115610e0e57600854610e0a906001600160701b03600160701b820481169116612404565b600b555b604080518581526020810185905233917f4c209b5fc8ad50758f13e2e1088ba56a560dff690a1c6fef26394f4c03821c4f910160405180910390a250506001600c5550949695505050505050565b600080600c54600114610e815760405162461bcd60e51b815260040161054e9061234b565b6000600c81905580610e91610a3e565b506006546007546040516370a0823160e01b81529395509193506001600160a01b039081169291169060009083906370a0823190610ed39030906004016120dd565b602060405180830381865afa158015610ef0573d6000803e3d6000fd5b505050506040513d601f19601f82011682018060405250810190610f1491906123c2565b90506000826001600160a01b03166370a08231306040518263ffffffff1660e01b8152600401610f4491906120dd565b602060405180830381865afa158015610f61573d6000803e3d6000fd5b505050506040513d601f19601f82011682018060405250810190610f8591906123c2565b30600090815260016020526040812054919250610fa28888611de2565b60005490915080610fb38685612404565b610fbd919061245f565b9a5080610fca8585612404565b610fd4919061245f565b995060008b118015610fe6575060008a115b6110315760405162461bcd60e51b815260206004820152602860248201526000805160206147968339815191526044820152671657d0955493915160c21b606482015260840161054e565b61103b3084612028565b611046878d8d6119b7565b611051868d8c6119b7565b6040516370a0823160e01b81526001600160a01b038816906370a082319061107d9030906004016120dd565b602060405180830381865afa15801561109a573d6000803e3d6000fd5b505050506040513d601f19601f820116820180604052508101906110be91906123c2565b6040516370a0823160e01b81529095506001600160a01b038716906370a08231906110ed9030906004016120dd565b602060405180830381865afa15801561110a573d6000803e3d6000fd5b505050506040513d601f19601f8201168201806040525081019061112e91906123c2565b935061113c85858b8b611afe565b811561116557600854611161906001600160701b03600160701b820481169116612404565b600b555b604080518c8152602081018c90526001600160a01b038e169133917fdccd412f0b1252819cb1fd330b93224ca42612892bb3f4f789976e6d81936496910160405180910390a35050505050505050506001600c81905550915091565b600e546001600160a01b031633146111eb5760405162461bcd60e51b815260040161054e9061241b565b600e80546001600160a01b0319166001600160a01b0392909216919091179055565b6000610a75338484611d4c565b600c5460011461123c5760405162461bcd60e51b815260040161054e9061234b565b6000600c556006546007546008546040516370a0823160e01b81526001600160a01b0393841693909216916112df91849186916001600160701b03169083906370a082319061128f9030906004016120dd565b602060405180830381865afa1580156112ac573d6000803e3d6000fd5b505050506040513d601f19601f820116820180604052508101906112d091906123c2565b6112da91906123f1565b6119b7565b6008546040516370a0823160e01b81526113279183918691600160701b90046001600160701b0316906001600160a01b038416906370a082319061128f9030906004016120dd565b50506001600c5550565b6000816001600160a01b0316836001600160a01b0316036113945760405162461bcd60e51b815260206004820152601e60248201527f556e697377617056323a204944454e544943414c5f4144445245535345530000604482015260640161054e565b600080836001600160a01b0316856001600160a01b0316106113b75783856113ba565b84845b90925090506001600160a01b03821661140f5760405162461bcd60e51b8152602060048201526017602482015276556e697377617056323a205a45524f5f4144445245535360481b604482015260640161054e565b6001600160a01b038281166000908152600f602090815260408083208585168452909152902054161561147d5760405162461bcd60e51b8152602060048201526016602482015275556e697377617056323a20504149525f45584953545360501b604482015260640161054e565b60006040518060200161148f906120d0565b601f1982820381018352601f9091011660408190526bffffffffffffffffffffffff19606086811b8216602084015285901b166034820152909150600090604801604051602081830303815290604052805190602001209050808251602084016000f560405163485cc95560e01b81526001600160a01b03868116600483015285811660248301529196509086169063485cc95590604401600060405180830381600087803b15801561154157600080fd5b505af1158015611555573d6000803e3d6000fd5b505050506001600160a01b038481166000818152600f602081815260408084208987168086529083528185208054978d166001600160a01b031998891681179091559383528185208686528352818520805488168517905560108054600181018255958190527f1b6847dc741a1b0cd08d278845f9d819d87b734759afb55fe2de5cb82a9ae6729095018054909716841790965592548351928352908201527f0d3648bd0f6ba80134a33ba9275ac585d9d315f0ad8355cddefde31afa28d0e9910160405180910390a35050505092915050565b4284101561166e5760405162461bcd60e51b8152602060048201526012602482015271155b9a5cddd85c158c8e881156141254915160721b604482015260640161054e565b6003546001600160a01b038816600090815260046020526040812080549192917f6e71edae12b1b97f4d1f60370fef10105fa2faae0126114a169c64845d6126c9918b918b918b9190876116c183612473565b909155506040805160208101969096526001600160a01b0394851690860152929091166060840152608083015260a082015260c0810187905260e0016040516020818303038152906040528051906020012060405160200161173a92919061190160f01b81526002810192909252602282015260420190565b60408051601f198184030181528282528051602091820120600080855291840180845281905260ff88169284019290925260608301869052608083018590529092509060019060a0016020604051602081039080840390855afa1580156117a5573d6000803e3d6000fd5b5050604051601f1901519150506001600160a01b038116158015906117db5750886001600160a01b0316816001600160a01b0316145b6118275760405162461bcd60e51b815260206004820152601c60248201527f556e697377617056323a20494e56414c49445f5349474e415455524500000000604482015260640161054e565b611832898989611cea565b505050505050505050565b600e546001600160a01b031633146118675760405162461bcd60e51b815260040161054e9061241b565b600d80546001600160a01b0319166001600160a01b0392909216919091179055565b600c546001146118ab5760405162461bcd60e51b815260040161054e9061234b565b6000600c556006546040516370a0823160e01b81526119b0916001600160a01b0316906370a08231906118e29030906004016120dd565b602060405180830381865afa1580156118ff573d6000803e3d6000fd5b505050506040513d601f19601f8201168201806040525081019061192391906123c2565b6007546040516370a0823160e01b81526001600160a01b03909116906370a08231906119539030906004016120dd565b602060405180830381865afa158015611970573d6000803e3d6000fd5b505050506040513d601f19601f8201168201806040525081019061199491906123c2565b6008546001600160701b0380821691600160701b900416611afe565b6001600c55565b60408051808201825260198152787472616e7366657228616464726573732c75696e743235362960381b60209182015281516001600160a01b0385811660248301526044808301869052845180840390910181526064909201845291810180516001600160e01b031663a9059cbb60e01b17905291516000928392871691611a3f919061248c565b6000604051808303816000865af19150503d8060008114611a7c576040519150601f19603f3d011682016040523d82523d6000602084013e611a81565b606091505b5091509150818015611aab575080511580611aab575080806020019051810190611aab91906124a8565b611af75760405162461bcd60e51b815260206004820152601a60248201527f556e697377617056323a205452414e534645525f4641494c4544000000000000604482015260640161054e565b5050505050565b6001600160701b038411801590611b1c57506001600160701b038311155b611b5e5760405162461bcd60e51b8152602060048201526013602482015272556e697377617056323a204f564552464c4f5760681b604482015260640161054e565b6000611b6f640100000000426124ca565b600854909150600090611b8f90600160e01b900463ffffffff16836124de565b905060008163ffffffff16118015611baf57506001600160701b03841615155b8015611bc357506001600160701b03831615155b15611c52578063ffffffff16611beb85611bdc866120a2565b6001600160e01b0316906120bb565b6001600160e01b0316611bfe9190612404565b60096000828254611c0f91906124fa565b909155505063ffffffff8116611c2884611bdc876120a2565b6001600160e01b0316611c3b9190612404565b600a6000828254611c4c91906124fa565b90915550505b6008805463ffffffff8416600160e01b026001600160e01b036001600160701b03898116600160701b9081026001600160e01b03199095168c83161794909417918216831794859055604080519382169282169290921783529290930490911660208201527f1c411e9a96e071241c2f21f7726b17ae89e3cab4c78be50e062b03a9fffbbad1910160405180910390a1505050505050565b6001600160a01b0383811660008181526002602090815260408083209487168084529482529182902085905590518481527f8c5be1e5ebec7d5bd14f71427d1e84f3dd0314c0f7b2291e5b200ac8c7c3b92591015b60405180910390a3505050565b6001600160a01b038316600090815260016020526040902054611d709082906123f1565b6001600160a01b038085166000908152600160205260408082209390935590841681522054611da09082906124fa565b6001600160a01b0380841660008181526001602052604090819020939093559151908516906000805160206147b683398151915290611d3f9085815260200190565b600080600560009054906101000a90046001600160a01b03166001600160a01b031663017e7e586040518163ffffffff1660e01b8152600401602060405180830381865afa158015611e38573d6000803e3d6000fd5b505050506040513d601f19601f82011682018060405250810190611e5c919061250d565b600b546001600160a01b038216158015945091925090611f0d578015611f08576000611e97610d166001600160701b03808816908916612404565b90506000611ea483611f21565b905080821115611f05576000611eba82846123f1565b600054611ec79190612404565b9050600082611ed7856005612404565b611ee191906124fa565b90506000611eef828461245f565b90508015611f0157611f018782611f91565b5050505b50505b611f19565b8015611f19576000600b555b505092915050565b60006003821115611f825750806000611f3b60028361245f565b611f469060016124fa565b90505b81811015611f7c57905080600281611f61818661245f565b611f6b91906124fa565b611f75919061245f565b9050611f49565b50919050565b8115611f8c575060015b919050565b80600054611f9f91906124fa565b60009081556001600160a01b038316815260016020526040902054611fc59082906124fa565b6001600160a01b0383166000818152600160205260408082209390935591519091906000805160206147b6833981519152906120049085815260200190565b60405180910390a35050565b600081831061201f5781612021565b825b9392505050565b6001600160a01b03821660009081526001602052604090205461204c9082906123f1565b6001600160a01b038316600090815260016020526040812091909155546120749082906123f1565b60009081556040518281526001600160a01b038416906000805160206147b683398151915290602001612004565b6000610a79600160701b6001600160701b03841661252a565b60006120216001600160701b03831684612553565b6122138061258383390190565b6001600160a01b0391909116815260200190565b6001600160a01b038116811461210657600080fd5b50565b60008060008060006080868803121561212157600080fd5b8535945060208601359350604086013561213a816120f1565b9250606086013567ffffffffffffffff81111561215657600080fd5b8601601f8101881361216757600080fd5b803567ffffffffffffffff81111561217e57600080fd5b88602082840101111561219057600080fd5b959894975092955050506020019190565b60005b838110156121bc5781810151838201526020016121a4565b50506000910152565b60208152600082518060208401526121e48160408501602087016121a1565b601f01601f19169190910160400192915050565b6000806040838503121561220b57600080fd5b8235612216816120f1565b946020939093013593505050565b60006020828403121561223657600080fd5b5035919050565b60008060006060848603121561225257600080fd5b833561225d816120f1565b9250602084013561226d816120f1565b929592945050506040919091013590565b6000806040838503121561229157600080fd5b823561229c816120f1565b915060208301356122ac816120f1565b809150509250929050565b6000602082840312156122c957600080fd5b8135612021816120f1565b600080600080600080600060e0888a0312156122ef57600080fd5b87356122fa816120f1565b9650602088013561230a816120f1565b95506040880135945060608801359350608088013560ff8116811461232e57600080fd5b9699959850939692959460a0840135945060c09093013592915050565b602080825260119082015270155b9a5cddd85c158c8e881313d0d2d151607a1b604082015260600190565b60018060a01b038616815284602082015283604082015260806060820152816080820152818360a0830137600081830160a090810191909152601f909201601f19160101949350505050565b6000602082840312156123d457600080fd5b5051919050565b634e487b7160e01b600052601160045260246000fd5b81810381811115610a7957610a796123db565b8082028115828204841417610a7957610a796123db565b6020808252601490820152732ab734b9bbb0b82b191d102327a92124a22222a760611b604082015260600190565b634e487b7160e01b600052601260045260246000fd5b60008261246e5761246e612449565b500490565b600060018201612485576124856123db565b5060010190565b6000825161249e8184602087016121a1565b9190910192915050565b6000602082840312156124ba57600080fd5b8151801515811461202157600080fd5b6000826124d9576124d9612449565b500690565b63ffffffff8281168282160390811115610a7957610a796123db565b80820180821115610a7957610a796123db565b60006020828403121561251f57600080fd5b8151612021816120f1565b6001600160e01b03818116838216818102909216918183048114821517611f1957611f196123db565b60006001600160e01b0383168061256c5761256c612449565b6001600160e01b0392909216919091049291505056fe60806040526001600c5534801561001557600080fd5b50604080518082018252600a8152692ab734b9bbb0b8102b1960b11b6020918201528151808301835260018152603160f81b9082015281517f8b73c3c69bb8fe3d512ecc4cf759cc79239f7b179b0ffacaa9a75d522b39400f818301527fbfcc8ef98ffbf7b6c3fec7bf5185b566b9863e35a9d83acd49ad6824b5969738818401527fc89efdaa54c0f20c7adf612882df0950f5a951637e0307cdcb4c672f298b8bc660608201524660808201523060a0808301919091528351808303909101815260c09091019092528151910120600355600580546001600160a01b0319163317905561210b806101086000396000f3fe608060405234801561001057600080fd5b50600436106101795760003560e01c80636a627842116100d9578063ba9a7a5611610087578063ba9a7a561461039e578063bc25cf77146103a7578063c45a0155146103ba578063d21220a7146103cd578063d505accf146103e0578063dd62ed3e146103f3578063fff6cae91461041e57600080fd5b80636a627842146102e257806370a08231146102f55780637464fc3d146103155780637ecebe001461031e57806389afcb441461033e57806395d89b4114610366578063a9059cbb1461038b57600080fd5b806323b872dd1161013657806323b872dd1461026057806330adf81f14610273578063313ce5671461029a5780633644e515146102b4578063485cc955146102bd5780635909c0d5146102d05780635a3d5493146102d957600080fd5b8063022c0d9f1461017e57806306fdde03146101935780630902f1ac146101d2578063095ea7b3146102065780630dfe16811461022957806318160ddd14610249575b600080fd5b61019161018c366004611c4f565b610426565b005b6101bc6040518060400160405280600a8152602001692ab734b9bbb0b8102b1960b11b81525081565b6040516101c99190611d0b565b60405180910390f35b6101da610938565b604080516001600160701b03948516815293909216602084015263ffffffff16908201526060016101c9565b610219610214366004611d3e565b610962565b60405190151581526020016101c9565b60065461023c906001600160a01b031681565b6040516101c99190611d6a565b61025260005481565b6040519081526020016101c9565b61021961026e366004611d7e565b610979565b6102527f6e71edae12b1b97f4d1f60370fef10105fa2faae0126114a169c64845d6126c981565b6102a2601281565b60405160ff90911681526020016101c9565b61025260035481565b6101916102cb366004611dbf565b610a0e565b61025260095481565b610252600a5481565b6102526102f0366004611df8565b610a8d565b610252610303366004611df8565b60016020526000908152604090205481565b610252600b5481565b61025261032c366004611df8565b60046020526000908152604090205481565b61035161034c366004611df8565b610d53565b604080519283526020830191909152016101c9565b6101bc604051806040016040528060068152602001652aa72496ab1960d11b81525081565b610219610399366004611d3e565b6110b8565b6102526103e881565b6101916103b5366004611df8565b6110c5565b60055461023c906001600160a01b031681565b60075461023c906001600160a01b031681565b6101916103ee366004611e15565b6111dc565b610252610401366004611dbf565b600260209081526000928352604080842090915290825290205481565b6101916113f0565b600c546001146104515760405162461bcd60e51b815260040161044890611e8c565b60405180910390fd5b6000600c55841515806104645750600084115b6104be5760405162461bcd60e51b815260206004820152602560248201527f556e697377617056323a20494e53554646494349454e545f4f55545055545f416044820152641353d5539560da1b6064820152608401610448565b6000806104c9610938565b5091509150816001600160701b0316871080156104ee5750806001600160701b031686105b6105325760405162461bcd60e51b815260206004820152602160248201526000805160206120968339815191526044820152605960f81b6064820152608401610448565b60065460075460009182916001600160a01b039182169190811690891682148015906105705750806001600160a01b0316896001600160a01b031614155b6105b45760405162461bcd60e51b8152602060048201526015602482015274556e697377617056323a20494e56414c49445f544f60581b6044820152606401610448565b8a156105c5576105c5828a8d61151e565b89156105d6576105d6818a8c61151e565b8615610643576040516304347a1760e21b81526001600160a01b038a16906310d1e85c906106109033908f908f908e908e90600401611eb7565b600060405180830381600087803b15801561062a57600080fd5b505af115801561063e573d6000803e3d6000fd5b505050505b6040516370a0823160e01b81526001600160a01b038316906370a082319061066f903090600401611d6a565b602060405180830381865afa15801561068c573d6000803e3d6000fd5b505050506040513d601f19601f820116820180604052508101906106b09190611f03565b6040516370a0823160e01b81529094506001600160a01b038216906370a08231906106df903090600401611d6a565b602060405180830381865afa1580156106fc573d6000803e3d6000fd5b505050506040513d601f19601f820116820180604052508101906107209190611f03565b92505050600089856001600160701b031661073b9190611f32565b8311610748576000610765565b61075b8a6001600160701b038716611f32565b6107659084611f32565b9050600061077c8a6001600160701b038716611f32565b83116107895760006107a6565b61079c8a6001600160701b038716611f32565b6107a69084611f32565b905060008211806107b75750600081115b61080f5760405162461bcd60e51b8152602060048201526024808201527f556e697377617056323a20494e53554646494349454e545f494e5055545f414d60448201526313d5539560e21b6064820152608401610448565b600061081c836003611f45565b610828866103e8611f45565b6108329190611f32565b90506000610841836003611f45565b61084d866103e8611f45565b6108579190611f32565b905061086f6001600160701b03808916908a16611f45565b61087c90620f4240611f45565b6108868284611f45565b10156108c35760405162461bcd60e51b815260206004820152600c60248201526b556e697377617056323a204b60a01b6044820152606401610448565b50506108d184848888611665565b60408051838152602081018390529081018c9052606081018b90526001600160a01b038a169033907fd78ad95fa46c994b6551d0da85fc275fe613ce37657fb8d5e3d130840159d8229060800160405180910390a350506001600c55505050505050505050565b6008546001600160701b0380821692600160701b830490911691600160e01b900463ffffffff1690565b600061096f338484611851565b5060015b92915050565b6001600160a01b0383166000908152600260209081526040808320338452909152812054600019146109f9576001600160a01b03841660009081526002602090815260408083203384529091529020546109d4908390611f32565b6001600160a01b03851660009081526002602090815260408083203384529091529020555b610a048484846118b3565b5060019392505050565b6005546001600160a01b03163314610a5f5760405162461bcd60e51b81526020600482015260146024820152732ab734b9bbb0b82b191d102327a92124a22222a760611b6044820152606401610448565b600680546001600160a01b039384166001600160a01b03199182161790915560078054929093169116179055565b6000600c54600114610ab15760405162461bcd60e51b815260040161044890611e8c565b6000600c81905580610ac1610938565b506006546040516370a0823160e01b81529294509092506000916001600160a01b03909116906370a0823190610afb903090600401611d6a565b602060405180830381865afa158015610b18573d6000803e3d6000fd5b505050506040513d601f19601f82011682018060405250810190610b3c9190611f03565b6007546040516370a0823160e01b81529192506000916001600160a01b03909116906370a0823190610b72903090600401611d6a565b602060405180830381865afa158015610b8f573d6000803e3d6000fd5b505050506040513d601f19601f82011682018060405250810190610bb39190611f03565b90506000610bca6001600160701b03861684611f32565b90506000610be16001600160701b03861684611f32565b90506000610bef8787611949565b60008054919250819003610c30576103e8610c12610c0d8587611f45565b611a88565b610c1c9190611f32565b9850610c2b60006103e8611af8565b610c77565b610c746001600160701b038916610c478387611f45565b610c519190611f72565b6001600160701b038916610c658487611f45565b610c6f9190611f72565b611b77565b98505b60008911610cc65760405162461bcd60e51b815260206004820152602860248201526000805160206120968339815191526044820152671657d3525395115160c21b6064820152608401610448565b610cd08a8a611af8565b610cdc86868a8a611665565b8115610d0557600854610d01906001600160701b03600160701b820481169116611f45565b600b555b604080518581526020810185905233917f4c209b5fc8ad50758f13e2e1088ba56a560dff690a1c6fef26394f4c03821c4f910160405180910390a250506001600c5550949695505050505050565b600080600c54600114610d785760405162461bcd60e51b815260040161044890611e8c565b6000600c81905580610d88610938565b506006546007546040516370a0823160e01b81529395509193506001600160a01b039081169291169060009083906370a0823190610dca903090600401611d6a565b602060405180830381865afa158015610de7573d6000803e3d6000fd5b505050506040513d601f19601f82011682018060405250810190610e0b9190611f03565b90506000826001600160a01b03166370a08231306040518263ffffffff1660e01b8152600401610e3b9190611d6a565b602060405180830381865afa158015610e58573d6000803e3d6000fd5b505050506040513d601f19601f82011682018060405250810190610e7c9190611f03565b30600090815260016020526040812054919250610e998888611949565b60005490915080610eaa8685611f45565b610eb49190611f72565b9a5080610ec18585611f45565b610ecb9190611f72565b995060008b118015610edd575060008a115b610f285760405162461bcd60e51b815260206004820152602860248201526000805160206120968339815191526044820152671657d0955493915160c21b6064820152608401610448565b610f323084611b8f565b610f3d878d8d61151e565b610f48868d8c61151e565b6040516370a0823160e01b81526001600160a01b038816906370a0823190610f74903090600401611d6a565b602060405180830381865afa158015610f91573d6000803e3d6000fd5b505050506040513d601f19601f82011682018060405250810190610fb59190611f03565b6040516370a0823160e01b81529095506001600160a01b038716906370a0823190610fe4903090600401611d6a565b602060405180830381865afa158015611001573d6000803e3d6000fd5b505050506040513d601f19601f820116820180604052508101906110259190611f03565b935061103385858b8b611665565b811561105c57600854611058906001600160701b03600160701b820481169116611f45565b600b555b604080518c8152602081018c90526001600160a01b038e169133917fdccd412f0b1252819cb1fd330b93224ca42612892bb3f4f789976e6d81936496910160405180910390a35050505050505050506001600c81905550915091565b600061096f3384846118b3565b600c546001146110e75760405162461bcd60e51b815260040161044890611e8c565b6000600c556006546007546008546040516370a0823160e01b81526001600160a01b03938416939092169161118a91849186916001600160701b03169083906370a082319061113a903090600401611d6a565b602060405180830381865afa158015611157573d6000803e3d6000fd5b505050506040513d601f19601f8201168201806040525081019061117b9190611f03565b6111859190611f32565b61151e565b6008546040516370a0823160e01b81526111d29183918691600160701b90046001600160701b0316906001600160a01b038416906370a082319061113a903090600401611d6a565b50506001600c5550565b428410156112215760405162461bcd60e51b8152602060048201526012602482015271155b9a5cddd85c158c8e881156141254915160721b6044820152606401610448565b6003546001600160a01b038816600090815260046020526040812080549192917f6e71edae12b1b97f4d1f60370fef10105fa2faae0126114a169c64845d6126c9918b918b918b91908761127483611f86565b909155506040805160208101969096526001600160a01b0394851690860152929091166060840152608083015260a082015260c0810187905260e001604051602081830303815290604052805190602001206040516020016112ed92919061190160f01b81526002810192909252602282015260420190565b60408051601f198184030181528282528051602091820120600080855291840180845281905260ff88169284019290925260608301869052608083018590529092509060019060a0016020604051602081039080840390855afa158015611358573d6000803e3d6000fd5b5050604051601f1901519150506001600160a01b0381161580159061138e5750886001600160a01b0316816001600160a01b0316145b6113da5760405162461bcd60e51b815260206004820152601c60248201527f556e697377617056323a20494e56414c49445f5349474e4154555245000000006044820152606401610448565b6113e5898989611851565b505050505050505050565b600c546001146114125760405162461bcd60e51b815260040161044890611e8c565b6000600c556006546040516370a0823160e01b8152611517916001600160a01b0316906370a0823190611449903090600401611d6a565b602060405180830381865afa158015611466573d6000803e3d6000fd5b505050506040513d601f19601f8201168201806040525081019061148a9190611f03565b6007546040516370a0823160e01b81526001600160a01b03909116906370a08231906114ba903090600401611d6a565b602060405180830381865afa1580156114d7573d6000803e3d6000fd5b505050506040513d601f19601f820116820180604052508101906114fb9190611f03565b6008546001600160701b0380821691600160701b900416611665565b6001600c55565b60408051808201825260198152787472616e7366657228616464726573732c75696e743235362960381b60209182015281516001600160a01b0385811660248301526044808301869052845180840390910181526064909201845291810180516001600160e01b031663a9059cbb60e01b179052915160009283928716916115a69190611f9f565b6000604051808303816000865af19150503d80600081146115e3576040519150601f19603f3d011682016040523d82523d6000602084013e6115e8565b606091505b50915091508180156116125750805115806116125750808060200190518101906116129190611fbb565b61165e5760405162461bcd60e51b815260206004820152601a60248201527f556e697377617056323a205452414e534645525f4641494c45440000000000006044820152606401610448565b5050505050565b6001600160701b03841180159061168357506001600160701b038311155b6116c55760405162461bcd60e51b8152602060048201526013602482015272556e697377617056323a204f564552464c4f5760681b6044820152606401610448565b60006116d664010000000042611fdd565b6008549091506000906116f690600160e01b900463ffffffff1683611ff1565b905060008163ffffffff1611801561171657506001600160701b03841615155b801561172a57506001600160701b03831615155b156117b9578063ffffffff166117528561174386611c09565b6001600160e01b031690611c22565b6001600160e01b03166117659190611f45565b60096000828254611776919061200d565b909155505063ffffffff811661178f8461174387611c09565b6001600160e01b03166117a29190611f45565b600a60008282546117b3919061200d565b90915550505b6008805463ffffffff8416600160e01b026001600160e01b036001600160701b03898116600160701b9081026001600160e01b03199095168c83161794909417918216831794859055604080519382169282169290921783529290930490911660208201527f1c411e9a96e071241c2f21f7726b17ae89e3cab4c78be50e062b03a9fffbbad1910160405180910390a1505050505050565b6001600160a01b0383811660008181526002602090815260408083209487168084529482529182902085905590518481527f8c5be1e5ebec7d5bd14f71427d1e84f3dd0314c0f7b2291e5b200ac8c7c3b92591015b60405180910390a3505050565b6001600160a01b0383166000908152600160205260409020546118d7908290611f32565b6001600160a01b03808516600090815260016020526040808220939093559084168152205461190790829061200d565b6001600160a01b0380841660008181526001602052604090819020939093559151908516906000805160206120b6833981519152906118a69085815260200190565b600080600560009054906101000a90046001600160a01b03166001600160a01b031663017e7e586040518163ffffffff1660e01b8152600401602060405180830381865afa15801561199f573d6000803e3d6000fd5b505050506040513d601f19601f820116820180604052508101906119c39190612020565b600b546001600160a01b038216158015945091925090611a74578015611a6f5760006119fe610c0d6001600160701b03808816908916611f45565b90506000611a0b83611a88565b905080821115611a6c576000611a218284611f32565b600054611a2e9190611f45565b9050600082611a3e856005611f45565b611a48919061200d565b90506000611a568284611f72565b90508015611a6857611a688782611af8565b5050505b50505b611a80565b8015611a80576000600b555b505092915050565b60006003821115611ae95750806000611aa2600283611f72565b611aad90600161200d565b90505b81811015611ae357905080600281611ac88186611f72565b611ad2919061200d565b611adc9190611f72565b9050611ab0565b50919050565b8115611af3575060015b919050565b80600054611b06919061200d565b60009081556001600160a01b038316815260016020526040902054611b2c90829061200d565b6001600160a01b0383166000818152600160205260408082209390935591519091906000805160206120b683398151915290611b6b9085815260200190565b60405180910390a35050565b6000818310611b865781611b88565b825b9392505050565b6001600160a01b038216600090815260016020526040902054611bb3908290611f32565b6001600160a01b03831660009081526001602052604081209190915554611bdb908290611f32565b60009081556040518281526001600160a01b038416906000805160206120b683398151915290602001611b6b565b6000610973600160701b6001600160701b03841661203d565b6000611b886001600160701b03831684612066565b6001600160a01b0381168114611c4c57600080fd5b50565b600080600080600060808688031215611c6757600080fd5b85359450602086013593506040860135611c8081611c37565b9250606086013567ffffffffffffffff811115611c9c57600080fd5b8601601f81018813611cad57600080fd5b803567ffffffffffffffff811115611cc457600080fd5b886020828401011115611cd657600080fd5b959894975092955050506020019190565b60005b83811015611d02578181015183820152602001611cea565b50506000910152565b6020815260008251806020840152611d2a816040850160208701611ce7565b601f01601f19169190910160400192915050565b60008060408385031215611d5157600080fd5b8235611d5c81611c37565b946020939093013593505050565b6001600160a01b0391909116815260200190565b600080600060608486031215611d9357600080fd5b8335611d9e81611c37565b92506020840135611dae81611c37565b929592945050506040919091013590565b60008060408385031215611dd257600080fd5b8235611ddd81611c37565b91506020830135611ded81611c37565b809150509250929050565b600060208284031215611e0a57600080fd5b8135611b8881611c37565b600080600080600080600060e0888a031215611e3057600080fd5b8735611e3b81611c37565b96506020880135611e4b81611c37565b95506040880135945060608801359350608088013560ff81168114611e6f57600080fd5b9699959850939692959460a0840135945060c09093013592915050565b602080825260119082015270155b9a5cddd85c158c8e881313d0d2d151607a1b604082015260600190565b60018060a01b038616815284602082015283604082015260806060820152816080820152818360a0830137600081830160a090810191909152601f909201601f19160101949350505050565b600060208284031215611f1557600080fd5b5051919050565b634e487b7160e01b600052601160045260246000fd5b8181038181111561097357610973611f1c565b808202811582820484141761097357610973611f1c565b634e487b7160e01b600052601260045260246000fd5b600082611f8157611f81611f5c565b500490565b600060018201611f9857611f98611f1c565b5060010190565b60008251611fb1818460208701611ce7565b9190910192915050565b600060208284031215611fcd57600080fd5b81518015158114611b8857600080fd5b600082611fec57611fec611f5c565b500690565b63ffffffff828116828216039081111561097357610973611f1c565b8082018082111561097357610973611f1c565b60006020828403121561203257600080fd5b8151611b8881611c37565b6001600160e01b03818116838216818102909216918183048114821517611a8057611a80611f1c565b60006001600160e01b0383168061207f5761207f611f5c565b6001600160e01b0392909216919091049291505056fe556e697377617056323a20494e53554646494349454e545f4c49515549444954ddf252ad1be2c89b69c2b068fc378daa952ba7f163c4a11628f55a4df523b3efa2646970667358221220889d7f5bfeee5d7490a90284357d823f5570701b22927f303312339047f2105d64736f6c634300081c0033556e697377617056323a20494e53554646494349454e545f4c49515549444954ddf252ad1be2c89b69c2b068fc378daa952ba7f163c4a11628f55a4df523b3efa2646970667358221220070f1fa640d79800f979d34904b9fb1221ba9d047a59744962952ac0d565e65464736f6c634300081c0033",
  "linkReferences": {},
  "deployedLinkReferences": {}
}